:020000040800F2
:1000000000100020190A0008050A0008070A000865
:1000100000000000000000000000000000000000E0
:10002000000000000000000000000000090A0008B5
:1000300000000000000000000B0A00080D0A000884
:10004000690A000800000000690A0008690A00083F
:10005000690A0008690A0008690A0008690A0008B4
:1000600000000000690A0008690A0008690A00081F
:10007000690A0008690A0008690A0008000000000F
:10008000690A00080000000000000000690A00087A
:1000900000000000690A0008690A0008690A0008EF
:1000A00000000000690A000800000000690A00085A
:1000B0000000000000000000000000000000000040
:1000C00010B5064C2378002B07D1054B002B02D02E
:1000D000044800E000BF0123237010BD3C04002051
:1000E000000000005C0C0008044B10B5002B03D08E
:1000F0000349044800E000BF10BDC04600000000F6
:10010000400400205C0C0008002243088B4274D39A
:1001100003098B425FD3030A8B4244D3030B8B4208
:1001200028D3030C8B420DD3FF22090212BA030C11
:100130008B4202D31212090265D0030B8B4219D3F2
:1001400000E0090AC30B8B4201D3CB03C01A524112
:10015000830B8B4201D38B03C01A5241430B8B425A
:1001600001D34B03C01A5241030B8B4201D30B0343
:10017000C01A5241C30A8B4201D3CB02C01A52416A
:10018000830A8B4201D38B02C01A5241430A8B422D
:1001900001D34B02C01A5241030A8B4201D30B0216
:1001A000C01A5241CDD2C3098B4201D3CB01C01A30
:1001B000524183098B4201D38B01C01A524143093A
:1001C0008B4201D34B01C01A524103098B4201D328
:1001D0000B01C01A5241C3088B4201D3CB00C01A95
:1001E000524183088B4201D38B00C01A524143080D
:1001F0008B4201D34B00C01A5241411A00D2014632
:10020000524110467047FFE701B5002000F006F8A4
:1002100002BDC0460029F7D076E770477047C04658
:1002200010B504000F4B1978FA208000FFF76CFF1F
:1002300001000D4B1868FFF767FF00F06BF800280E
:100240000DD1032C01D901200AE001300022210048
:10025000404200F02FF8054B1C60002000E0012018
:1002600010BDC0460000002008000020040000204F
:1002700010B5064A136810210B4313600320FFF7E3
:10028000CFFF00F0A7FB002010BDC04600200240B9
:10029000034A1168034B1B785B1813607047C04614
:1002A0005804002000000020014B18687047C04629
:1002B0005804002070B5002811DB8308134EC033AA
:1002C0009B009D5903242040C000FF22140084405D
:1002D000A54389010A4082402A439A5170BD0F23E9
:1002E0000340083B9B0806339B00094A944663443D
:1002F0005C6803221040C000FC3215008540AC430E
:1003000089010A40824022435A60E7E700E100E0A9
:1003100000ED00E0013880235B0498420FD2094AC7
:1003200050600948036A1B021B0AC02109060B43DF
:10033000036200239360073313600020704701209D
:10034000FCE7C04610E000E000ED00E070B582B0D0
:10035000041E00D12EE20368DB0726D5AE4B5A6897
:100360000C231340042B18D0AB4B5A680C231340BA
:10037000082B0ED06368012B3CD0002B51D1A64B2B
:100380001A68A6490A401A601A68A5490A401A6004
:1003900036E0A14B5B68DB03ECD59F4B1B689B03EE
:1003A00003D56368002B00D107E223689B0772D551
:1003B000994B5B680C221A425DD0974B5A680C230C
:1003C0001340082B53D0E368002B00D185E0924AFC
:1003D000136801210B431360FFF766FF05008E4B86
:1003E0001B689B0770D4FFF75FFF401B0228F6D9FC
:1003F0000320E0E1884A116880235B020B4313600D
:100400006368002B25D0FFF74FFF0500824B1B6868
:100410009B03CAD4FFF748FF401B6428F6D903208A
:10042000C9E1052B09D07C4B1A687C490A401A6047
:100430001A687B490A401A60E2E7774B1968802204
:10044000D2020A431A601968802252020A431A60D3
:10045000D6E7FFF729FF05006F4B1B689B03A4D568
:10046000FFF722FF401B6428F6D90320A3E16A4B63
:100470005B68DB03A7D4684B1B689B0703D5E36865
:10048000012B00D09BE164490B68F8229343226959
:10049000D20013430B6023681B0744D5E369002B8C
:1004A0002ED05D4A536A01210B435362FFF7FCFED5
:1004B0000500594B5B6A9B0735D4FFF7F5FE401BDF
:1004C0000228F6D9032076E153490B68F8229343BA
:1004D0002269D20013430B60DDE74F4A1368012104
:1004E0008B431360FFF7E0FE05004B4B1B689B0737
:1004F000D1D5FFF7D9FE401B0228F6D903205AE1D7
:10050000454A536A01218B435362FFF7CDFE050034
:10051000414B5B6A9B0706D5FFF7C6FE401B0228CE
:10052000F6D9032047E123685B0700D480E03A4B0B
:10053000DB69DB001DD4384AD169802040050143C6
:10054000D161D36903400193019B0125354B1B68A1
:10055000DB0510D5A368012B21D0002B36D12E4B03
:100560001A6A01218A431A621A6A03318A431A629B
:100570001AE00025EAE72B4A116880235B000B4351
:100580001360FFF791FE0600264B1B68DB05E1D4E4
:10059000FFF78AFE801B6428F6D903200BE11E4A70
:1005A000136A01210B431362A368002B24D0FFF7C9
:1005B0007BFE0600184B1B6A9B0737D4FFF774FEBF
:1005C000801B194B9842F5D90320F4E0052B09D084
:1005D000114B1A6A01218A431A621A6A03318A434B
:1005E0001A62E1E70C4B1A6A04210A431A621A6A7A
:1005F00003390A431A62D7E7FFF756FE0600064B97
:100600001B6A9B0712D5FFF74FFE801B064B9842D3
:10061000F5D90320CFE0C04600100240FFFFFEFFE7
:10062000FFFFFBFF0070004088130000012D33D056
:100630002368DB0610D56369012B33D0053351D114
:10064000654A536B04218B435363536BF4318B43E3
:10065000A169C9000B435363236A002B00D1B0E0AA
:100660005D4A51680C220A40082A00D18AE0022B18
:100670004FD0594A136859490B401360FFF714FED5
:100680000400554B1B689B017AD5FFF70DFE001B3C
:100690000228F6D903208EE04F4AD36950490B4017
:1006A000D361C5E74C4B5A6B04210A435A635A6B1A
:1006B00003390A435A63FFF7F7FD0500464B5B6BAE
:1006C0009B0706D4FFF7F0FD401B0228F6D9032054
:1006D00071E041494B6BF8229343A269D200134366
:1006E0004B63B9E73C4B5A6B04210A435A635A6B7C
:1006F00003398A435A63FFF7D7FD0500364B5B6B1E
:100700009B07A9D5FFF7D0FD401B0228F6D903208F
:1007100051E0314A136831490B401360FFF7C4FDC3
:1007200005002D4B1B689B0106D5FFF7BDFD401B47
:100730000228F6D903203EE0274BDA6A0F218A43CC
:10074000E16A0A43DA625A6826490A40A16A606A85
:1007500001430A435A601968802252040A431A600E
:10076000FFF7A2FD04001C4B1B689B0106D4FFF79A
:100770009BFD001B0228F6D903201CE000201AE094
:10078000002018E0012B1ED0134B5A68D96A802331
:100790005B021340606A834217D10F230B40E16A6A
:1007A0008B4214D1F0239B031A40A36A9A4210D1C2
:1007B000002000E0012002B070BD0120FBE7012015
:1007C000F9E70020F7E70120F5E70120F3E7012032
:1007D000F1E70120EFE7C04600100240FFFFFFFEF7
:1007E000FFFFFFEFFFFFC2FF10B5104B5A680C234D
:1007F0001340082B01D00E4810BD910C073319404F
:100800000C48445C0949C96A0B400B49C95CD303D5
:1008100004D50748FFF778FC6043EDE763011B1B35
:100820009801C01AC00000190002E5E7001002405C
:1008300000127A00740C0008840C000870B50400E3
:100840000D00002800D17EE0434B1A6801231340BD
:100850008B420AD240490B68012293432B430B6021
:100860000B681A40AA4200D06FE023689A070ED5A1
:100870005B0705D5394A5168E023DB000B43536021
:10088000364A5368F0218B43A1680B4353602368B9
:10089000DB072DD56368012B1ED0022B22D02F4AF7
:1008A0001268920753D52D494A68032082431343A7
:1008B0004B60FFF7F9FC0600284B5B680C221A40DE
:1008C00063689B009A4213D0FFF7EEFC801B244B19
:1008D0009842F1D9032035E0204A12689203E2D40D
:1008E00001202FE01D4A12689201DCD4012029E08A
:1008F000194B1A6801231340AB4209D916490B68FA
:10090000012293432B430B600B681A40AA4220D16B
:1009100023685B0706D5114A536812490B40E1680A
:100920000B435360FFF760FF0C4B5A6812090F230B
:1009300013400D4AD35CD8400C4B18600320FFF7DE
:100940006FFC002070BD0120FCE70120FAE70120C8
:10095000F8E70120F6E7C046002002400010024000
:1009600088130000FFF8FFFF940C00080800002027
:1009700072B6FEE700B591B03022002104A800F065
:1009800097F810220021684600F092F802230493A1
:10099000013B07930F33089304A8FFF7D7FC002807
:1009A0000DD10723009300230193029303930021A9
:1009B0006846FFF743FF002803D111B000BDFFF7E1
:1009C000D7FFFFF7D5FF10B5FFF752FCFFF7D2FFB7
:1009D000FEE7000082B00A4B996901221143996138
:1009E00099690A400092009ADA69802149050A4310
:1009F000DA61DB690B400193019B02B07047C0468E
:100A000000100240FEE7FEE77047704710B5FFF7A1
:100A10003FFC10BD704700000D488546FFF7FAFF08
:100A20000C480D490D4A002302E0D458C450043349
:100A3000C4188C42F9D30A4A0A4C002301E013601F
:100A40000432A242FBD300F011F8FFF7BCFFFEE72F
:100A500000100020000000203C040020B40C00081E
:100A60003C04002060040020FEE7000070B50C4D3F
:100A70000C4E761BB61005D0002408CD01349847E3
:100A8000A642FAD100F0EAF8074D084E761BB610E0
:100A900005D0002408CD01349847A642FAD170BD94
:100AA000A80C0008A80C0008A80C0008B00C00084E
:100AB000F0B50500830749D0541E002A45D0030035
:100AC0000326CAB202E00135013C3ED301332A704D
:100AD0003342F8D1032C30D9FF220A4015021543C6
:100AE0002A0415430F2C34D92700103F3F093E013B
:100AF000B4461E001A0010366644156055609560B5
:100B0000D5601032B242F8D101373F01DB190F270F
:100B10000C22274022403C00002A0ED03E1FB6087F
:100B2000B400A4461A001C1D644420C2A242FCD199
:100B300003240136B6009B193C40002C05D0C9B2F5
:100B40001C19197001339C42FBD1F0BD0300140045
:100B5000C0E72700E2E7C046034B10B5002B02D0E8
:100B6000024800F005F810BD00000000810B0008ED
:100B700010B5010000230022002000F019F810BD7C
:100B800070B5074D074C641BA41005D0013CA300B1
:100B9000EB589847002CF9D100F066F870BDC046BC
:100BA000B00C0008B40C00087047C0467047C0463F
:100BB000F0B5D6464F464646C0B5264F82B0060031
:100BC0003868924698468946FFF7EEFF224B1B682D
:100BD0000193A423019A5B00D558002D2ED06C6898
:100BE0001F2C30DC002E0FD1631C6B604B4602348F
:100BF000A40038686351FFF7D9FF002002B0E0BCC1
:100C0000BA46B146A846F0BD882251462800A30046
:100C1000EB189950873AA2408930FF3001681143A0
:100C200001608421404649005850022EDCD12B003F
:100C30008D33FF3319680A431A60D5E715004D3527
:100C4000FF35D550CBE73868FFF7B0FF01204042B1
:100C5000D4E7C04638040020A40C0008F8B5C0460C
:100C6000F8BC08BC9E467047F8B5C046F8BC08BC46
:040C70009E467047E5
:100C740002030405060708090A0B0C0D0E0F1010D9
:100C84000102030405060708090A0B0C0D0E0F10D8
:100C94000000000000000000010203040607080928
:040CA400100000201C
:080CA800590B0008E9000008E7
:040CB000C100000877
:100CB400010000000400000000127A00000000009F
:100CC40000000000FC02002064030020CC0300208C
:100CD4000000000000000000000000000000000010
:100CE4000000000000000000000000000000000000
:100CF40000000000000000000000000000000000F0
:100D040000000000000000000000000000000000DF
:100D140000000000000000000000000000000000CF
:100D240000000000000000000000000000000000BF
:100D340000000000000000000000000000000000AF
:100D4400000000000000000000000000000000009F
:100D5400000000000000000000000000000000008F
:100D6400000000000000000001000000000000007E
:100D74000E33CDAB34126DE6ECDE05000B00000043
:100D8400000000000000000000000000000000005F
:100D9400000000000000000000000000000000004F
:100DA400000000000000000000000000000000003F
:100DB400000000000000000000000000000000002F
:0C10E40000000000000000005C04002080
:0400000508000A19CC
:00000001FF
